:1000000000000320C5040000A14F000011050000FE
:1000100009050000090500000905000000000000B6
:10002000000000000000000000000000A906000021
:1000300009050000000000003F0700004F07000016
:100040002105000025050000290500002D05000000
:100050003105000035050000390500003D050000B0
:100060004105000045050000490500004D05000060
:100070005105000055050000590500005D05000010
:1000800061050000090500000905000009050000E0
:100090000905000009050000090500000905000028
:1000A00065050000690500006D0500007105000090
:1000B00075050000790500007D0500008105000040
:1000C00085050000890500008D05000091050000F0
:1000D00095050000990500009D0500000905000038
:1000E00009050000090500000905000009050000D8
:1000F00009050000090500000905000009050000C8
:1001000009050000090500000905000009050000B7
:1001100009050000090500000905000009050000A7
:100120000905000009050000090500000905000097
:100130000905000009050000090500000905000087
:1001400009050000A1050000A5050000A9050000A3
:10015000AD050000B105000009050000090500001B
:100160000905000009050000B5050000B9050000FB
:10017000BD050000C1050000C5050000C90500005F
:10018000CD050000D1050000D5050000D90500000F
:10019000DD050000E105000009050000090500007B
:1001A0000905000009050000090500000905000017
:1001B0000905000009050000090500000905000007
:1001C00009050000090500000905000009050000F7
:1001D00009050000090500000905000009050000E7
:1003F000090500000905000009050000FFFFFFFFD7
:10040000FFFFFFFFFFFFFFFFFFFFFFFFFEFFFFFFFD
:1004100010B5054C237833B9044B13B10448AFF33E
:1004200000800123237010BDA00300200000000005
:1004300048A5000008B5034B1BB103490348AFF3BF
:10044000008008BD00000000A403002048A50000B3
:10045000154B002B08BF134B9D46A3F5803A002196
:100460008B460F461348144A121A05F048F80F4BF2
:10047000002B00D098470E4B002B00D0984700204F
:10048000002104000D000D48002802D00C48AFF3F5
:10049000008004F091FF2000290001F0BBF904F076
:1004A000D9FD00BF0000080000000320000000008C
:1004B00025180000A0030020CC250020000000002B
:1004C0000000000072B609480949016009488047E8
:1004D00009490A4A0A4B9A42BEBF51F8040B42F836
:1004E000040BF8E762B607488047000008ED00E01B
:1004F00000000000212B000074A500000000002077
:100500009003002051040000FFF7FEBF354800476C
:1005100035480047354800473548004735480047CB
:1005200035480047354800473548004735480047BB
:1005300035480047354800473548004735480047AB
:10054000354800473548004735480047354800479B
:10055000354800473548004735480047354800478B
:10056000354800473548004735480047354800477B
:10057000354800473548004735480047354800476B
:10058000354800473548004735480047354800475B
:10059000354800473548004735480047354800474B
:1005A000354800473548004735480047354800473B
:1005B000354800473548004735480047344800472C
:1005C0003348004732480047314800473048004729
:1005D000304800473048004730480047304800471F
:1005E00030480047A14F000011050000A906000097
:1005F0003F0700004F070000A14A0000AD4A00007D
:10060000B94A0000C54A0000D14A0000DD4A000096
:10061000E94A0000F54A0000014B00000D4B0000C4
:10062000194B0000254B0000314B00003D4B0000F2
:10063000494B0000554B000009050000090500006A
:100640000905000009050000090500000905000072
:1006500009050000090500000D4F00000905000014
:10066000294F000009050000454F00000905000062
:10067000614F000009050000090500007D4F0000E2
:1006800009050000994F0000090500000905000058
:100690000905000009050000090500000905000022
:1006A0000905000009050000EFF30980816911F8D0
:1006B000021CB9BB01B590E80F10E047BDE800503F
:1006C0008CE80300264B93E80600914208BF704770
:1006D00041B91EF0100F10D12249086820F0010026
:1006E00008600AE02CE9F00F1EF0100F08BF2CED97
:1006F000108AC1F838C081F822E001F0B3FF184B2E
:1007000093E806001A6092F82210906B61F0FF0ED9
:100710001EF0100F08BFB0EC108AB0E8F00F80F3A5
:100720000988704710B5104A1368994206D852F8E4
:1007300021400FC8A047EFF30984206010BD10B519
:1007400001F0C0FCBDE81040EFF3098CBAE710B52A
:1007500001F07EFCBDE81040EFF3098CB2E7000029
:100760001800002034EF00E0889B0000000000002B
:1007700001F0FF01102A2BDB10F0070F08D010F852
:10078000013B013A8B422DD010F0070F42B3F6D156
:10079000F0B441EA012141EA014122F007047FF06F
:1007A00000070023F0E80256083C85EA010586EAC6
:1007B000010685FA47F5A3FA87F586FA47F6A5FA02
:1007C00087F68EB9EED1F0BC01F0FF0102F007020E
:1007D00032B110F8013B013A83EA010313B1F8D1B9
:1007E0000020704701387047002D06BF354603389A
:1007F000073815F0010F07D1013015F4807F02BFD3
:10080000013015F4C03F0130F0BC0138704700BF23
:10081000034613F8012B002AFBD1181A0138704740
:100820009140031C90409C46203A93401943524209
:100830006346D3401943704781F0004102E000BF96
:1008400083F0004330B54FEA41044FEA430594EA90
:10085000050F08BF90EA020F1FBF54EA000C55EACB
:10086000020C7FEA645C7FEA655C00F0E2804FEA9C
:100870005454D4EB5555B8BF6D420CDD2C4480EA7E
:10088000020281EA030382EA000083EA010180EAAE
:10089000020281EA0303362D88BF30BD11F0004FFC
:1008A0004FEA01314FF4801C4CEA113102D0404232
:1008B00061EB410113F0004F4FEA03334CEA13336D
:1008C00002D0524263EB430394EA050F00F0A78085
:1008D000A4F10104D5F1200E0DDB02FA0EFC22FA80
:1008E00005F2801841F1000103FA0EF2801843FA74
:1008F00005F359410EE0A5F120050EF1200E012A65
:1009000003FA0EFC28BF4CF0020C43FA05F3C018A2
:1009100051EBE37101F0004507D54FF0000EDCF11B
:10092000000C7EEB00006EEB0101B1F5801F1BD3C4
:10093000B1F5001F0CD349085FEA30004FEA3C0CC8
:1009400004F101044FEA445212F5800F80F09A80BE
:10095000BCF1004F08BF5FEA500C50F1000041EBC2
:10096000045141EA050130BD5FEA4C0C404141EBC6
:10097000010111F4801FA4F10104E9D191F0000FED
:1009800004BF01460020B1FA81F308BF2033A3F170
:100990000B03B3F120020CDA0C3208DD02F1140C67
:1009A000C2F10C0201FA0CF021FA02F10CE002F1A2
:1009B0001402D8BFC2F1200C01FA02F120FA0CFC9B
:1009C000DCBF41EA0C019040E41AA2BF01EB0451E4
:1009D000294330BD6FEA04041F3C1CDA0C340EDCE2
:1009E00004F11404C4F1200220FA04F001FA02F325
:1009F00040EA030021FA04F345EA030130BDC4F1E3
:100A00000C04C4F1200220FA02F001FA04F340EAD7
:100A10000300294630BD21FA04F0294630BD94F088
:100A2000000F83F4801306BF81F480110134013D6F
:100A30004EE77FEA645C18BF7FEA655C29D094EAE0
:100A4000050F08BF90EA020F05D054EA000C04BF5E
:100A50001946104630BD91EA030F1EBF0021002049
:100A600030BD5FEA545C05D14000494128BF41F0E8
:100A7000004130BD14F580043CBF01F5801130BD4C
:100A800001F0004545F0FE4141F470014FF00000D7
:100A900030BD7FEA645C1ABF194610467FEA655C88
:100AA0001CBF0B46024650EA013406BF52EA03352A
:100AB00091EA030F41F4002130BD00BF90F0000F18
:100AC00004BF0021704730B54FF4806404F1320454
:100AD0004FF000054FF0000150E700BF90F0000F0D
:100AE00004BF0021704730B54FF4806404F1320434
:100AF00010F0004548BF40424FF000013EE700BF04
:100B000042004FEAE2014FEA31014FEA02701FBF93
:100B100012F07F4393F07F4F81F06051704732F0C5
:100B20007F4208BF704793F07F4F04BF41F400211C
:100B3000704730B54FF4607401F0004521F000417A
:100B40001CE700BF50EA010208BF704730B54FF004
:100B500000050AE050EA010208BF704730B511F005
:100B6000004502D5404261EB41014FF4806404F13D
:100B700032045FEA915C3FF4D8AE4FF003025FEAC3
:100B8000DC0C18BF03325FEADC0C18BF033202EB47
:100B9000DC02C2F1200300FA03FC20FA02F001FAA1
:100BA00003FE40EA0E0021FA02F11444BDE600BF44
:100BB00070B54FF0FF0C4CF4E06C1CEA11541DBFF3
:100BC0001CEA135594EA0C0F95EA0C0F00F0DEF8BE
:100BD0002C4481EA030621EA4C5123EA4C5350EAA3
:100BE000013518BF52EA033541F4801143F48013F4
:100BF00038D0A0FB02CE4FF00005E1FB02E506F085
:100C00000042E0FB03E54FF00006E1FB03569CF0D9
:100C1000000F18BF4EF0010EA4F1FF04B6F5007FDF
:100C200064F5407404D25FEA4E0E6D4146EB060651
:100C300042EAC62141EA55514FEAC52040EA5E50DA
:100C40004FEACE2EB4F1FD0C88BFBCF5E06F1ED884
:100C5000BEF1004F08BF5FEA500E50F1000041EBBB
:100C6000045170BD06F0004646EA010140EA020068
:100C700081EA0301B4EB5C04C2BFD4EB0C0541EA8A
:100C8000045170BD41F480114FF0000E013C00F39F
:100C9000AB8014F1360FDEBF002001F0004170BDC3
:100CA000C4F10004203C35DA0C341BDC04F11404DC
:100CB000C4F1200500FA05F320FA04F001FA05F268
:100CC00040EA020001F0004221F0004110EBD37035
:100CD00021FA04F642EB06015EEA430E08BF20EA61
:100CE000D37070BDC4F10C04C4F1200500FA04F304
:100CF00020FA05F001FA04F240EA020001F0004196
:100D000010EBD37041F100015EEA430E08BF20EA08
:100D1000D37070BDC4F1200500FA05F24EEA020E50
:100D200020FA04F301FA05F243EA020321FA04F07F
:100D300001F0004121FA04F220EA020000EBD37036
:100D40005EEA430E08BF20EAD37070BD94F0000F36
:100D50000FD101F00046400041EB010111F4801F6A
:100D600008BF013CF7D041EA060195F0000F18BF1B
:100D7000704703F00046520043EB030313F4801F57
:100D800008BF013DF7D043EA0603704794EA0C0F11
:100D90000CEA135518BF95EA0C0F0CD050EA410627
:100DA00018BF52EA4306D1D181EA030101F00041A4
:100DB0004FF0000070BD50EA410606BF10461946CC
:100DC00052EA430619D094EA0C0F02D150EA0136D8
:100DD00013D195EA0C0F05D152EA03361CBF104619
:100DE00019460AD181EA030101F0004141F0FE41B8
:100DF00041F470014FF0000070BD41F0FE4141F43C
:100E0000780170BD70B54FF0FF0C4CF4E06C1CEA3B
:100E100011541DBF1CEA135594EA0C0F95EA0C0FF0
:100E200000F0A7F8A4EB050481EA030E52EA0335AB
:100E30004FEA013100F088804FEA03334FF08055CC
:100E400045EA131343EA12634FEA022245EA1115F9
:100E500045EA10654FEA00260EF000419D4208BFAA
:100E6000964244F1FD0404F5407402D25B084FEA57
:100E70003202B61A65EB03055B084FEA32024FF403
:100E800080104FF4002CB6EB020E75EB030E22BF60
:100E9000B61A754640EA0C005B084FEA3202B6EB20
:100EA000020E75EB030E22BFB61A754640EA5C00CF
:100EB0005B084FEA3202B6EB020E75EB030E22BF5F
:100EC000B61A754640EA9C005B084FEA3202B6EB60
:100ED000020E75EB030E22BFB61A754640EADC001F
:100EE00055EA060E18D04FEA051545EA16754FEA81
:100EF00006164FEAC30343EA52734FEAC2025FEA9F
:100F00001C1CC0D111F4801F0BD141EA00014FF02D
:100F100000004FF0004CB6E711F4801F04BF0143FE
:100F20000020B4F1FD0C88BFBCF5E06F3FF6AFAE1A
:100F3000B5EB030C04BFB6EB020C5FEA500C50F1AA
:100F4000000041EB045170BD0EF0004E4EEA11312D
:100F500014EB5C04C2BFD4EB0C0541EA045170BD34
:100F600041F480114FF0000E013C90E645EA060E78
:100F70008DE60CEA135594EA0C0F08BF95EA0C0FA6
:100F80003FF43BAF94EA0C0F0AD150EA01347FF4EE
:100F900034AF95EA0C0F7FF425AF104619462CE7C5
:100FA00095EA0C0F06D152EA03353FF4FDAE104628
:100FB000194622E750EA410618BF52EA43067FF479
:100FC000C5AE50EA41047FF40DAF52EA43057FF409
:100FD000EBAE12E74FF0FF3C06E000BF4FF0010C14
:100FE00002E000BF4FF0010C4DF804CD4FEA410C78
:100FF0007FEA6C5C4FEA430C18BF7FEA6C5C1BD045
:1010000001B050EA410C0CBF52EA430C91EA030FC5
:1010100002BF90EA020F0020704710F1000F91EA22
:10102000030F58BF994208BF90422CBFD8176FEAF0
:10103000E37040F0010070474FEA410C7FEA6C5CBE
:1010400002D150EA013C07D14FEA430C7FEA6C5CC5
:10105000D6D152EA033CD3D05DF8040B704700BFF1
:101060008446104662468C461946634600E000BF3F
:1010700001B5FFF7B7FF002848BF10F1000F01BD11
:101080004DF808EDFFF7F4FF0CBF012000205DF8DC
:1010900008FB00BF4DF808EDFFF7EAFF34BF012061
:1010A00000205DF808FB00BF4DF808EDFFF7E0FFFA
:1010B00094BF012000205DF808FB00BF4DF808ED4B
:1010C000FFF7CEFF94BF012000205DF808FB00BFB2
:1010D0004DF808EDFFF7C4FF34BF012000205DF894
:1010E00008FB00BF4FEA410C7FEA6C5C02D150EA7A
:1010F000013C0AD14FEA430C7FEA6C5C02D152EA10
:10110000033C02D14FF0000070474FF001007047E0
:101110004FEA410212F5001215D211D56FF478731F
:10112000B3EB625212D94FEAC12343F0004343EAC2
:10113000505311F0004F23FA02F018BF404270479D
:101140004FF00000704750EA013005D111F0004027
:1011500008BF6FF0004070474FF00000704700BFBD
:101160004A0011D212F5001211D20DD56FF4787326
:10117000B3EB62520ED44FEAC12343F0004343EA7B
:10118000505323FA02F070474FF00000704750EAC6
:10119000013002D14FF0FF3070474FF00000704730
:1011A0004FEA4102B2F1E04324BFB3F5001CDCF189
:1011B000FE5C0DD901F0004C4FEAC0024CEA5070C1
:1011C000B2F1004F40EB830008BF20F001007047F0
:1011D00011F0804F21D113F13872BCBF01F00040F3
:1011E000704741F480114FEA5252C2F11802C2F125
:1011F000200C10FA0CF320FA02F018BF40F00100A6
:101200004FEAC1234FEAD32303FA0CFC40EA0C0057
:1012100023FA02F34FEA4303CCE77FEA625307D194
:1012200050EA01331EBF4FF0FE4040F440007047CB
:1012300001F0004040F0FE4040F40000704700BF65
:1012400053B94AB9002908BF00281CBF4FF0FF312D
:101250004FF0FF3000F072B9ADF1080C6DE904CE2B
:1012600000F006F8DDF804E0DDE9022304B0704781
:101270002DE9F047089E04468846002B4BD18A4250
:10128000154667D9B2FA82F24AB1C2F1200701FAD3
:1012900002F320FA07F7954047EA030894404FEA23
:1012A000154E230CB8FBFEF71FFA85FC0EFB1788C2
:1012B00043EA084307FB0CF1994209D9EB1807F1FF
:1012C000FF3080F01B81994240F21881023F2B448D
:1012D0005B1AA4B2B3FBFEF00EFB103344EA0344E6
:1012E00000FB0CFCA44509D92C1900F1FF3380F058
:1012F0000781A44540F2048102382C4440EA0740AB
:10130000A4EB0C0400271EB1D4400023C6E900431F
:101310003946BDE8F0878B4209D9002E00F0EB80FA
:101320000027C6E9000138463946BDE8F087B3FA20
:1013300083F7002F47D18B4202D3824200F2FA801A
:10134000841A61EB030301209846002EE0D0C6E921
:101350000048DDE702B9FFDEB2FA82F2002A40F06F
:101360008F80491B4FEA154E1FFA85F80127B1FB04
:10137000FEFC230C0EFB1C1143EA014308FB0CF19D
:10138000994207D9EB180CF1FF3002D2994200F2D2
:10139000CD808446591AA3B2B1FBFEF00EFB1014A7
:1013A00043EA044408FB00F8A04507D92C1900F1D2
:1013B000FF3302D2A04500F2B6801846A4EB080421
:1013C00040EA0C409FE7C7F1200CBB4022FA0CFE1C
:1013D0004EEA030E01FA07F420FA0CF521FA0CF399
:1013E0004FEA1E482543B3FBF8F92C0C08FB1933D0
:1013F0001FFA8EFA44EA034309FB0AF49C4202FAFC
:1014000007F200FA07F10BD91EEB030309F1FF30D5
:1014100080F087809C4240F28480A9F102097344E5
:101420001B1BADB2B3FBF8F008FB103345EA0344D5
:1014300000FB0AFAA24508D91EEB040400F1FF33B1
:101440006BD2A24569D90238744440EA0940A0FB36
:101450000289A4EB0A044C45C2464B4654D351D0F2
:10146000002E69D0B1EB0A0564EB030404FA0CFC0E
:10147000FD40FC404CEA0505C6E90054002747E75B
:10148000C2F1200320FA03F7954001FA02F021FA95
:1014900003F34FEA154E3843010CB3FBFEF71FFA76
:1014A00085F80EFB173341EA034107FB08F38B4233
:1014B00004FA02F407D9691807F1FF3C2FD28B42D6
:1014C0002DD9023F2944CB1A81B2B3FBFEF00EFBAB
:1014D000103341EA034100FB08F38B4207D9691836
:1014E00000F1FF3C17D28B4215D902382944C91AA2
:1014F00040EA07473BE73746304609E70746E7E655
:101500001846FBE64145ABD2B8EB020A69EB0E0286
:1015100001381346A4E76046E9E7184695E76746B1
:10152000D1E781467CE702382C4447E7ACF1020C56
:101530002B442FE7384608E73746E9E6704700BFF7
:1015400000B583B001900091019B00221A60019BBD
:101550000099184600F098F8019B184603B05DF812
:1015600004FB00B583B001900091019B00991846DF
:1015700001F028FB00BF03B05DF804FB00B583B0A9
:101580000190019B184601F03FFB0346184603B04B
:101590005DF804FB00B583B00190009100990198BB
:1015A000FFF7DFFF019B184603B05DF804FB00B5B1
:1015B00083B001900198FFF7E1FF0346184603B09E
:1015C0005DF804FB08B50848FFF7F1FF0346002B60
:1015D0000CBF01230023DBB219460348FFF7DAFFF3
:1015E000024800F075F8EEE7BC030020CDCC4C3E7D
:1015F00000B583B001900091019B012B09D1009BA4
:101600004FF6FF72934204D141F216010348FFF7EF
:1016100097FF00BF03B05DF804FB00BFBC030020D0
:1016200008B54FF6FF710120FFF7E2FF08BD70B566
:101630000E460446154601F093FA013609D02046BD
:10164000002101F099FA29462046BDE8704001F0DA
:1016500090BA70BD0222FFF7EABF70B50E4604468D
:10166000154601F07DFA01360DD02946204601F0DD
:10167000A9FA2046012101F07FFA20460021BDE8A9
:10168000704001F076BA70BD0022FFF7E6BFF8B5F2
:10169000054601F03FFB064601F025FD4FF47A7444
:1016A00095FBF4F4002C074602DD01F0B1FD30B9E2
:1016B000304601F018FDC01BA842F9D3F8BD01F077
:1016C00037FB204601F04AFA01F04CFBF0E700003E
:1016D00007EE100ADFED047A67EE277AFDEEE77A6F
:1016E00017EE900AFFF7D3BF002474494FF47A73C2
:1016F0005843FFF7CCBF0000154838B5154B0360C1
:101700000B251C24144B4560C460836000F02CFC46
:10171000124B18601248134BC46080E82800124B2B
:10172000836000F021FC114B18601148114BC4601C
:1017300080E82800104B836000F016FC0F4B186007
:1017400003F03AFE00210846BDE8384000F062B8D8
:101750000C240020AC960000D4240020D0240020CB
:1017600038240020BC96000090240020082400208B
:10177000F0240020C99600001C2400200014002042
:101780000A4A0B48C2F1005303F54033B3F5806FAA
:10179000194628BF4FF480615B1A0160054998180B
:1017A000086005490B60054B1A607047D025002082
:1017B000C0030020C40300202004002024040020D3
:1017C000704700000D4A0E4808B50E4B13614FF4E8
:1017D000805353614823D3600B4B9360182393616C
:1017E00000210A4B136001F069F910B9084801F0B3
:1017F000F9FCBDE8084000F0B7B900BFAC240020F8
:10180000F9160000081400204824002084960000E7
:101810009096000008B5FFF7D3FFBDE80840FFF73A
:10182000D1BE000038B5FFF7ABFF0A4A0A489368FB
:10183000191F03F5CA74C31A51F8045F5D50A14221
:10184000FAD1906003F0AAFB00F044F9BDE83840FB
:10185000FFF7B8BF00ED00E00000FF1F024B4FF0A4
:10186000FF31186800F0ACBB08240020014B186859
:1018700000F0C4BB0824002070B56348017A012938
:10188000044603D102F01DF8002070BD31B14FF0C5
:10189000FF3002F014F84FF0FF3070BD5B4D9C221A
:1018A000083003F02CFE6B6D472B02D86FF00A0056
:1018B000EFE7EA68002AEAD02B8A002BE7D0EE6A2D
:1018C000A4F85430296BAB68E2653046236401F01C
:1018D00077FF08B1C4F880606E69A969304601F0ED
:1018E0006FFF002800F084806667EE69296A304641
:1018F00001F066FF00287FD0A6676E6AA96A3046AD
:1019000001F05EFF00287BD0E6676E6B46B1F3689E
:10191000B2683168304600F05DF908B1C4F88460FF
:10192000AE6B46B1F368B2683168304600F052F9E8
:1019300008B1C4F88860EE6B46B1F368B2683168EC
:10194000304600F047F908B1C4F88C602E6C46B1FF
:10195000F368B2683168304600F03CF908B1C4F869
:1019600090606E6C46B1F368B2683168304600F042
:1019700031F908B1C4F89460AE6C46B1F368B2684E
:101980003168304600F026F908B1C4F89860EE6C72
:1019900046B1F368B2683168304600F01BF908B10F
:1019A000C4F89C602D6D45B1EB68AA68296828468B
:1019B00000F010F908B1C4F8A050154AFF2382F8CE
:1019C000223092F82230D16863F0FF03DB43B3FA90
:1019D00083F3C3F12003C1F302218B4298BF4B1C58
:1019E000FE2101FA03F3DBB2D3770123237249E727
:1019F000D4F88030636778E7D4F88030A3677CE759
:101A0000D4F88030E36780E7040000201C960000D3
:101A100000ED00E010B5034C207A01F053FF207A6E
:101A200010BD00BF0400002038B5244C237A012BE0
:101A300006D06FF0060001F042FF4FF0FF3038BDD6
:101A4000A36A1F4D4BB9AA6D1E48194600F09CFEB3
:101A5000A06210B94FF0FF30EDE76B6E4BB1A36C95
:101A60003BB9EA6D1848194600F08EFEA0640028C4
:101A7000F0D01649686800F09BFB0028DDD100F02B
:101A8000D3FB206100F0B4FB0028D6D1104800F051
:101A9000DAFC0028DED000F007FE2B6813F0010FFF
:101AA0004FF0020306D083F31488237201F00CFF79
:101AB000002038BD032282F31488F6E704000020DA
:101AC0001C960000B9360000BD2200004F07000040
:101AD0002000002008B501F0F3FEEFF305832BB9D9
:101AE000EFF3108313B9EFF3118333B16FF00500F7
:101AF00001F0E5FE6FF0050008BDDFF828C0EFF348
:101B0000148313F0020F0AD113F0040FEFF30883CC
:101B10000CBF203B683B23F0070383F3098800DFF9
:101B200008BD00BF7918000008B5EFF305832BB995
:101B3000EFF3108313B9EFF3118333B14FF0FF309C
:101B400001F0C0FE4FF0FF3008BDEFF31483DB0758
:101B500003D4BDE80840FFF75DBFDFF808C000DF31
:101B600008BD00BF151A000008B501F0ACFEEFF388
:101B700005832BB9EFF3108313B9EFF3118333B15E
:101B80006FF0050001F09BFE6FF0050008BDFFF748
:101B9000CBFF022805D00D4B1B6813B15B6803B166
:101BA0009847DFF82CC0EFF3148313F0020F0AD12B
:101BB00013F0040FEFF308830CBF203B683B23F0C6
:101BC000070383F3098800DF08BD00BF002500205C
:101BD000291A00002DE9F0410C4617461D4606461D
:101BE00000B3C1B102B30BB34FF0000E02FB01F81A
:101BF0003160C0F804E003EB080EF3607361B2607B
:101C0000C0F810E001F058FE2B46013C06D1A8EBCD
:101C10000707EC5101242046BDE8F081DA191A606B
:101C20001346F2E70446F6E71446F4E71C46F2E7EB
:101C300038B5044628B9014601F03FFE254628463E
:101C400038BD031D026853E8001F8A4202D8BFF363
:101C50002F8F04E0481C43E8000505B1F3E7236833
:101C60008B4211D904F1140353E8005F15B9BFF397
:101C70002F8F04E02A6843E8002101B1F4E72946E8
:101C8000204601F01AFEDAE70025F8E738B528B15A
:101C9000C3688B4202D80369994207D36FF00302ED
:101CA00001F00CFE6FF00304204638BD031D53E81D
:101CB000002F12B9BFF32F8F04E0541E43E80045F4
:101CC00005B1F4E79AB100F114031A680A60BFF392
:101CD0005F8F53E8002F0C689442F6D143E800155B
:101CE00005B1F2E70024224601F0E8FDDCE76FF0E1
:101CF0000204F8E770B500283AD0846890E86000E4
:101D000064B114F0030302D1C2681B2A1FD86FF01C
:101D10000801002001F0E9FD002070BDC368002B20
:101D2000F5D1154BD3F8940030B901221C21D3F81A
:101D3000800001F065FD01E0FFF77AFF044628B955
:101D40006FF0040101F0D1FD204670BD0123042293
:101D50002270A370012200236270E6706560A360A8
:101D6000E360236163612376204601F0C0FDEBE769
:101D700005460646D5E700BF04000020304B70B58D
:101D80005D6904460E4635B96FF0070101F0ADFDFF
:101D90004FF0FF3070BD10B10378042B07D0204600
:101DA0006FF0030101F0A1FD6FF0030070BD4378F7
:101DB00033B96FF0020101F098FD6FF0020070BDC1
:101DC000017E69B9EB6AC5604361016103B11861C5
:101DD0000121EC622046217601F08DFD002070BDCE
:101DE000C378DA070BD5C268954208D1FF2902D122
:101DF0006FF00F01DFE70131C9B20176ECE7DEB128
:101E00009B070AD5E06895F9203090F920209A4286
:101E100003DA80F8203000F031FB3146204601F033
:101E200068FD2946204600F0FBFA3146532000F0B9
:101E3000B3FD6FF0010070BD204601F05DFDBCE711
:101E40000400002038B5334B5D69044635B96FF0A6
:101E5000070101F04AFD4FF0FF3038BD10B10378A3
:101E6000042B07D020466FF0030101F03EFD6FF018
:101E7000030038BD437833B96FF0020101F035FD3E
:101E80006FF0020038BDC3689D4202D06FF00D01B3
:101E9000F4E7017E11B96FF00E01EFE70139C9B225
:101EA000017601F02BFD237E3BBB63690BB12269F8
:101EB0001A6122691AB35361E3789B0705D595F936
:101EC0002120EB6AEBB985F82020A36893B1204666
:101ED00000F0B9FA00220546114600F023FCEB6A37
:101EE000636101210023E56023612046EC622176D5
:101EF00001F001FD002000F0E7FB002038BDEB629F
:101F0000DAE7996821B191F920108A42B8BF0A46F0
:101F10005B69D7E7040000202DE9F0410446002664
:101F200001270CB9BDE8F081E378D4F814801B07D1
:101F300018D526760021204601F0E0FCA3688BB17D
:101F4000204600F080FA00220546114600F0EAFB28
:101F5000EB6AE560636126610121EC622046277629
:101F600001F0C9FC4446DCE710B5044601F0BEFCB4
:101F7000EFF305832BB9EFF3108313B9EFF311835C
:101F800033B16FF00501002001F0AFFC002010BD5F
:101F90002046DFF828C0EFF3148313F0020F0AD1B4
:101FA00013F0040FEFF308830CBF203B683B23F0D2
:101FB000070383F3098800DF10BD00BFF51C000094
:101FC00038B504460D4601F093FCEFF305832BB9B9
:101FD000EFF3108313B9EFF311833BB120466FF099
:101FE000050101F082FC6FF0050038BD204629464E
:101FF000DFF804C000DF38BD7D1D000010B50446C9
:1020000001F07BFCEFF305832BB9EFF3108313B9D9
:10201000EFF311833BB120466FF0050101F065FC41
:102020006FF0050010BD2046DFF804C000DF10BDD2
:10203000451E000010B5D0E85F3F5A1C914200D801
:102040000022C0E8542F04B1F5E798B210BD00009B
:1020500038B51B4C00F0E2F8E3680133E360236D10
:1020600003B1984700F086FA002000F02DFB236CA6
:102070002BB1A26BA1698A4202D0A163E36338BD90
:10208000E36B0BB1013BE363E36B002BF7D1237AE6
:10209000022BF4D1656A002DF1D095F9201092F948
:1020A00020309942EBD1284600F0DEF9A06B00F019
:1020B000F7F9284600F0F8FAA563236CDEE700BFC5
:1020C0000400002070B5204C04F1560504F15A06B6
:1020D000B4F85410D5E85F3F13B9BFF32F8F04E075
:1020E0005A1EC5E8502F00B1F4E79BB23BB330460F
:1020F000FFF7A0FFE36D53F8200000B30378013B26
:10210000062BE5D801A252F823F000BF29210000D8
:10211000D12000002F210000D12000003321000039
:10212000372100003B210000236E9847D0E7636E03
:10213000FBE7A36EF9E7E36EF7E7236FF5E700200F
:10214000BDE8704000F0C0BA0400002070B5164C25
:102150000546B4F8541004F15602D2E85F3F9942A4
:1021600002D8BFF32F8F04E0581CC2E8560F06B107
:10217000F3E79BB2994210D904F15800FFF75AFFD8
:10218000E36D43F82050637A23B9084B4FF0805237
:102190005A6070BD0123A37270BD29460220BDE8BC
:1021A000704001F08DBA00BF0400002000ED00E097
:1021B000A8B10C4B1B68B3FBF0F00138B0F1807F85
:1021C0000DD2094BFF2283F82320A3F54F6306228B
:1021D0001A60586000209860044B187070474FF0E8
:1021E000FF307047A800002000ED00E0C803002089
:1021F000074B1A782AB100221A70064B4FF0806202
:102200005A60054A136843F00103136000207047C9
:10221000C803002000ED00E010E000E0014B0020CA
:102220001B68704710E000E04FF0FF30704700007F
:102230000C4A536C30B5002413B11D69A9420AD26F
:1022400001618460C3601BB11D699860691A1961DE
:102250002CB1E06030BD1C46491BDB68ECE75064E4
:1022600030BD00BF0400002070B5134D6C6C04B38A
:102270002369013B236101262369D3B9E3680BB1CC
:10228000A2689A606B6400231A4604F11801E86C96
:1022900001F0F2FD18B12146032001F011FAE378B4
:1022A000012B07D161692046FFF7C2FF6C6C002C3F
:1022B000E2D170BD6670F9E7040000200F4B13B542
:1022C0001A6E586E0E4C082101F0A6FDE06490B124
:1022D0000C4B23654FF0FF3300226946E06C01F0A0
:1022E00025FE0028F6D19DE8030001F0FCFA0198D4
:1022F000009B9847EEE702B010BD00BF1C9600009F
:10230000040000206922000010B5034B5C692046E0
:1023100001F0DFFA204610BD0400002008B501F0EE
:102320000FFADFF810C000DF4FF0FF31002001F09E
:10233000CCFAFEE7E129000012F0020F10B502F01E
:10234000010222D100F1280382B153E8000F00EA14
:1023500001028A4203D0BFF32F8F002005E020EA5C
:10236000010243E8002404B1EFE710BD53E8000F79
:10237000084203D1BFF32F8F002005E020EA0102BD
:1023800043E8002404B1F1E710BD806A01EA0003CC
:102390001AB1994218BF002010BD002B08BF0020C1
:1023A00010BD000010B50023437083789A070446DF
:1023B00008D513F0100F016B0E4B0FD0D3F884002B
:1023C000FFF764FCA378DB0712D50A4BD3F888002B
:1023D000214638B1BDE81040FFF758BC586F01F0F6
:1023E00043FAEFE7D3F88000BDE8104001F03CBAB3
:1023F00010BD00BF0400002010B5044610B10378E2
:10240000012B05D02046002101F062FA002010BD0A
:102410004378002BF6D0416801F05AFA606810BD8D
:1024200010B561B191F9202083681BB193F9204068
:10243000944205DAC8608B60816003B1D96010BD39
:1024400018469B68F1E783682BB19A68826002B1F5
:10245000D0600022DA601846704710B10378012B73
:1024600000D07047C068F8E7C36833B182689A60EB
:10247000826802B1D3600023C360704710B5014683
:1024800004462378012B07D00846FFF7EDFF2046CE
:10249000BDE81040FFF7C4BFE468002CF1D110BDC7
:1024A0000123014643700148FFF7BABF2000002016
:1024B0004B1C30B5144A0FD1136B00213BB94FF0C0
:1024C000FF34C4614161036121B1086130BD194627
:1024D0001B69F3E7106330BDD36A002413B1DD69D3
:1024E000A9420AD2C1614461036154B120611BB1A8
:1024F000DA695861511AD96130BD1C46491B1B6904
:10250000ECE7D062F3E700BF0400002010B5C46917
:102510004269631C10D11AB9104B1B6B98421BD136
:10252000036903B15A6142691AB11361002343611F
:1025300010BD0A4A136310BD1AB9084BDB6A9842F2
:102540000AD103691BB1D9695A612144D961426931
:10255000002AEAD1014AD36210BD00BF0400002066
:1025600090F82220836B12F0100F0CBF6020202007
:102570001844704738B52E4DEC6A002C57D0E369EB
:10258000013BE361002B52D16378532B37D008D83D
:10259000332B2BD0432B2CD0132B07D101F0A2F9D6
:1025A00004E0732B37D017D8632B2ED02046FFF7CB
:1025B000D7FF0168204601F08FF92046FFF754FF4E
:1025C0002046FFF76DFF246924B1E369002BDBD0BF
:1025D00000236361EC6238BD832B22D0932BE5D1BD
:1025E0002046FFF73AFF01F091F9DFE701F077F9B4
:1025F000DCE72046FFF731FF01F076F9D6E7204609
:10260000FFF72BFF01F076F9D0E72046FFF725FF13
:1026100001F075F9CAE72046FFF71FFF01F070F9D6
:10262000C4E72046FFF719FF01F076F9BEE738BD91
:102630000400002010B50123094A437090F92010CE
:10264000536A1C321BB193F920408C4205DCC260F6
:102650008360906003B1D86010BD1A469B68F1E7B3
:1026600004000020044B1B682BB11B691BB1034AFB
:102670009269506C18477047002500200400002024
:10268000074B596951B10B6B8A6B934203D21A689D
:10269000044B9A4202D0012001F012B8704700BFEB
:1026A00004000020A52E5AE210B502234370054B0A
:1026B00004469861FFF7E4FF2046BDE8104001F0B2
:1026C0000CB900BF0400002010B5154B04461A7A5F
:1026D0005969A8B9022A5C6A20D1F9B1F4B194F918
:1026E000202091F920309A4218DD2046FFF7BCFEE9
:1026F0000846FFF79FFF2046BDE81040FFF7D4BF14
:10270000022A06D129B190F9202091F920309A426D
:10271000EEDC2046BDE81040FFF7C2BE10BD00BF92
:102720000400002070B504460E46154601F0D4F8AA
:102730002046FFF715FF06602046FFF7E7FE20461C
:102740001DB1BDE87040FFF7BFBFBDE87040FFF7A7
:10275000A7BE38B54378332B044613D190F8232015
:10276000416AFFF7E9FD054660B1014600222046B7
:10277000FFF7D8FF2A4694F82310606ABDE8384076
:1027800001F0AEB838BD00002DE9F04F85B08246AB
:102790000391029338B96FF0030101F096F800201D
:1027A00005B0BDE8F08F002A39D0946802F1100519
:1027B000E0CD44B1A30702D1D368472B06D86FF010
:1027C00008010020E9E7D368002BF8D13DB1680784
:1027D00002D1002E40F0CE806FF00A01F1E72FB158
:1027E0007B1E372B03D96FF00B01EAE718271EB1C8
:1027F0007107F1D1472EEFD95368D2F800800193C9
:10280000D4B95F4BD3F8880078B1FFF711FA0446CA
:10281000A0BB6FF0040101F058F82046C0E79046D5
:102820001827164615460192EBE701224821D3F8F6
:10283000800000F0E5FFEAE74FF0000B2DBBDFF86A
:102840004091002E7ED14F4AD9F88400566D002861
:1028500078D0FFF7EDF9054698B96FF00401002034
:1028600001F033F8BBF1000F99D0D9F88850214618
:10287000002D71D02846FFF709FA90E74FF0010BC1
:10288000DCE74BF0100B4BF0020B9DF80430E370CB
:102890000023A360E36023616361A361E36184F8C3
:1028A00023306362A362E362A6F1400301222B445A
:1028B000227062707FB2A363FD22334B84F802B0B2
:1028C000C4F8048084F8207084F8217084F82220F1
:1028D00025636663C4F83CA02B602A4B1B685B072A
:1028E00043D50435B608A6F111032A464FF0CC3182
:1028F000002B36D106F18046113E05EB860505F129
:102900003403002245F8042B9D42FBD11F4B204A83
:1029100085E808044FF08073AB60039B45F8143CD6
:10292000174B20461A6600F0D2FF1A4B1B68F3B112
:102930009B68E3B102992046984760642046FFF700
:10294000C3FE6AE72A463146D9F8740000F058FF02
:102950000546002897D180E7D9F8800000F084FF71
:102960001DE742F8041B013BC2E7A56BC7E7029BCA
:102970006364E3E7002F7FF433AF182738E700BF25
:10298000040000201C960000A52E5AE21D23000022
:102990005327000000250020F8B5104D6C6907464C
:1029A0000E46CCB12B7A022B04D02046FFF75CFDFB
:1029B0000020F8BD686A80B1204600F08CFF3146E7
:1029C00020466770FFF774FD05F11C00FFF73BFD23
:1029D000FFF76AFE0120F8BD2046F8BD0400002084
:1029E00038B51B4D6C69002C30D0E06AFFF794FAC3
:1029F000A06930B100221146FFF794FEA06900F0F3
:102A000069FF2B7A022B21D16B6AFBB1EFF30983AB
:102A10001048A363FFF717FDFFF746FE00236B6125
:102A2000E378DB0701D5A3693BB12046FFF7BAFC89
:102A30002046BDE8384000F051BF04226270E360D8
:102A40006B6BA36003B1DC606C63F1E738BD00BF62
:102A50000400002020000020F8B507460E46154669
:102A60001C4600F033FFEFF305832BB9EFF310831F
:102A700013B9EFF3118333B16FF00501002000F0BB
:102A800024FF0020F8BD384631462A462346DFF8A9
:102A900028C0EFF3148414F0020F0AD114F0040FCD
:102AA000EFF308840CBF203C683C24F0070484F357
:102AB000098800DFF8BD00BF892700000023FFF769
:102AC000CBBF000008B50346EFF305822AB9EFF348
:102AD000108212B9EFF311822AB11846002100F0DA
:102AE000F7FE002008BDDFF808C000DF08BD00BF0A
:102AF000F923000008B5EFF305832BB9EFF310833A
:102B000013B9EFF3118323B1002000F0E2FE00209F
:102B100008BDDFF808C000DF08BD00BF09230000C2
:102B2000084AD2F8883043F47003C2F88830064B64
:102B30004CF22052DA814DF62812DA814FF4E97214
:102B40001A80704700ED00E000200540024B1B6832
:102B500003B11847704700BFCC03002000F014BE3B
:102B60004A1C0B46016003D00121184600F068B8EA
:102B70007047006800F09EB838B503680133054619
:102B80000C4604D131220C490C4800F0B1FA2B68F4
:102B90000B4AD9B21B1352F8233014B1012C07D0C1
:102BA00038BD5A6901248C4022EA04045C6138BDB6
:102BB0005A698C401443F9E70C970000F496000022
:102BC000E096000038B50368013304460D4604D191
:102BD00042220A490A4800F08BFA2268094BD1B216
:102BE000121315F0FF0F53F822204FF0010303FAE0
:102BF00001F30CBF9360536038BD00BF0C97000019
:102C0000F4960000E09600000368013310B5044616
:102C100004D14B220749084800F06AFA2368074AA2
:102C20001913DBB252F821201069D84000F00100DE
:102C300010BD00BF0C970000F4960000E096000065
:102C4000F0B5431C87B007460C4604D11A2215493B
:102C5000154800F04DFA154E0FCE01AD0FC5336883
:102C60002B60381306AB03EB8003012253F8141CCE
:102C70000B0C03F1804303F58E2389B21D688A4053
:102C80002A431A600A4BFFB253F8202052F827302B
:102C9000240223F4E06304F4E0641C4342F8274078
:102CA00007B0F0BD4D970000F9960000D0950000E8
:102CB0008C97000038B5431C04460D4604D12422ED
:102CC0001149124800F014FA2213114BE4B253F8E0
:102CD0002220012D52F824300AD004D3022D0ED028
:102CE00042F8243038BD23F0807323F00303F7E764
:102CF00023F0807323F0010343F00203F0E723F095
:102D0000807343F00303EBE74D970000F996000052
:102D10008C97000000487047A0970000024B1B688A
:102D20000BB1024818477047AC000020A097000084
:102D300008B500F073FA094B1A884FF6FF739A42F0
:102D400004D100F081FA064800F04CFA0121034852
:102D500000F088FABDE8084000F076BA10040020C0
:102D6000C497000008B500F059FA084B1B8823B936
:102D700000F06AFA064800F035FA0121034800F035
:102D80007BFABDE8084000F05FBA00BF10040020E5
:102D9000F197000008B500F041FA064B1B882BB9EB
:102DA00001F0B4FABDE8084000F04EBA01F0A6FA0E
:102DB000F8E700BF100400202DE9F34790E808046D
:102DC00004465B68984763681B6A984235D0DAF816
:102DD0002040DAF80C30DAF80820CAF82000041B8A
:102DE0001C402E4B9A4226464FF000071FD0DAE9CE
:102DF0000A01B2F5004FA4FB0345CDE9000127D13C
:102E0000DDE9002347F6FF70E60B002104401219AC
:102E100046EA45464FEAD53705EA01056B41994236
:102E200008BF904214461D460AD3CAE90A45DAE9AA
:102E30000C23B6185F41CAE90C6702B0BDE8F08701
:102E4000013647F10007B2F5004443F1FF35ECE7E6
:102E50004FF000094B46204629469046FEF7F0F910
:102E6000424606460F464B4620462946FEF7E8F9FD
:102E7000DDE9000180185941494508BF4045024637
:102E80000B4602D2CAE90A23D1E7013647F100070F
:102E9000B0EB080261EB0903F4E700BF40420F000A
:102EA000824206D98A420BD9884294BF0020012071
:102EB0007047884206D98A428CBF002001207047A3
:102EC00001207047002070472DE9F0478046D0F878
:102ED0000490FFF771FFD8F80450D8F800A0696893
:102EE00000294AD0D5E90C23D1E90067BB4208BFCD
:102EF000B24204D3DAF81430BDE8F0471847B61AE6
:102F000067EB0307D5E90623BB4208BFB2422C6931
:102F100006D3AB68204A934219D1B44228BF344645
:102F20002A6ADAF810301444EA68144020469847B8
:102F3000D8F800305B68984722460146D9F820004F
:102F4000FFF7AEFF30B3D8F800305B69D4E7B3F5D4
:102F5000004F0BD1F903104A0023F00341EA564118
:102F6000FEF76EF9844228BF0446D9E7A3FB0601A9
:102F700003FB0711084A0023F2E7D9F81030D9F80B
:102F80002000D9F80C2018441040DAF81030BDE8C1
:102F9000F0471847BDE8F08740420F0003682DE96D
:102FA000F74F04461B68984723689B699847D0F8F9
:102FB00000B00546BBF1000F06D129222A492B4853
:102FC000DFF8ACB000F094F8D5F804A0AAF104033F
:102FD0001C2B06D92F222449244800F089F84FF0F1
:102FE000200AAAF1040307251BF1FF3005FA03F5B7
:102FF0001F4E4FF0000343F1FF315A46C6FB050157
:10300000FEF71EF9D4F804800023C8F80030C8F891
:10301000043023685B680F46064698476368C8F823
:1030200020004FF000094FF00008C3E90A89C3F8F7
:1030300008B05246012000210193FDF7F1FB019BEE
:1030400001220138D8601D612046C3E90667C3E943
:103050000C8983F83820FFF7AFFE204603B0BDE8A7
:10306000F04FFFF731BF00BF179800002F98000006
:1030700040420F0070B5044600F0D0F82368DB68CA
:10308000984763685B68A3B12046FFF795FE6568C3
:103090006E68D5E90C01D6E90023994208BF904239
:1030A00007D3F3686B602B68002BEAD0B0689847B1
:1030B000E7E72046FFF708FFBDE8704000F0C4B81E
:1030C000436893F8383010B504460BB9FFF766FF34
:1030D00000F0A4F82046FFF76FFE00F0B5F8636833
:1030E000D3E90C0110BD08B5FFF7EAFF08BD0000E9
:1030F00070B504460D46164600F090F833462A4651
:103100002146034800F060F8BDE8704000F002B8C6
:103110003198000013B500F081F841F2160101A8C2
:10312000FEF7B2FA0424012101A8FFF74BFD962017
:10313000FEF7DCFA002101A8FFF744FD9620FEF718
:10314000D5FA013CEFD10424012101A8FFF73AFD93
:103150004FF4C870FEF7CAFA002101A8FFF732FD4C
:103160004FF4C870FEF7C2FA013CEDD1DAE7000077
:1031700070B50D46A0B0044600F050F82B4622462C
:103180008021684604F04EF9051E03DC00F05CF86F
:1031900020B070BD0A4B1B6833B941F2100241F2F6
:1031A0001101084800F012FF064E00241DF804101B
:1031B0003046013400F0DAFFA542F7D1E6E700BF60
:1031C000800A0020042500200FB407B504A951F897
:1031D000040B0191FFF7CCFF03B05DF804EB04B0E2
:1031E000704700000FB413B5084B1A784AB9012490
:1031F00005A904981C700191FFF7BAFF204601F061
:1032000029FF02B0BDE8104004B07047120400204E
:10321000EFF31080C04300F00100704710B5074C79
:103220002368013304D1552205490648FFF760FFA2
:1032300001F074F823680133236010BD14040020EA
:10324000629800007D980000054B1A6832B11A6838
:10325000013A1A601B680BB901F072B8704700BFE1
:1032600014040020D0E85F3F0B449BB2C0E8523FFB
:10327000002AF7D118467047D0E85F3F5B1A9BB22F
:10328000C0E8523F002AF7D1184670470020704727
:10329000036801221B6900211847036800221B698B
:1032A0001146184703681B69184703689B6918474C
:1032B00003689B6A18474FF0FF30704770476FF004
:1032C0001C0070476FF01500704701207047002008
:1032D00070477047014B1868FEF790BED02400205D
:1032E000F8B5074E15460C468F18BC4205D014F8A9
:1032F000011B304600F03AFFF7E72846F8BD00BF53
:103300000425002038B58DB215F0010405D0084819
:1033100000F0F0FE041C18BF0124EB0605D504489C
:1033200000F00EFF08B144F01004204638BD00BF85
:103330000425002010B5044602F0CEF8204610BD4A
:1033400010B50C462AB1044800F0EAFE20700120B6
:1033500010BD104610BD00BF0425002038B51D4625
:10336000074B0360074B1B68044633B9064800F05F
:103370002DFE2946044800F0A7FE204638BD00BFB8
:10338000B8980000800A0020042500200020704723
:10339000002070470C4A136810B51844EFF30881F9
:1033A000884205D3094B0C221A604FF0FF3010BD44
:1033B00007490C6824B10749096821448842F1D2C1
:1033C0001060184610BD00BFB0010020C8250020C5
:1033D0002004002024040020074C08B5236805467B
:1033E000986801F0FBFE2368D86801F0F7FE0DB184
:1033F000FFF790FEFEE700BFC001002001207047EC
:1034000008B5FEF72BFA08BD08B5FEF72FFA08BD80
:1034100010B5037803F00303012B04460CD00E4BC8
:103420004FF0FF311868FEF7CBFD237803F003035C
:10343000012B03D1FFF74EFF002010BD2BB140F24E
:103440000E5206490648FFF753FE237843F0020365
:103450002370012010BD00BFD0240020049900007B
:103460002199000010B5037803F00303022B0446F2
:1034700005D040F2165207490748FFF739FE237876
:1034800023F0030343F001032370BDE81040FFF76E
:1034900021BF00BF04990000479900003F2870B584
:1034A000044631DC194D55F820305A1C13D102283E
:1034B00011DCFFF76DFF034658B92046FFF766FFA2
:1034C000034630B9124E3378BFF35B8FDB0704D568
:1034D000104B45F82430184670BD3046FFF798FF72
:1034E0000028F5D04FF4165341F2100241F21101B9
:1034F0000848FFF733FF3046FFF7B4FF064A074995
:103500000448FFF77BFFE3E70023E4E7B000002077
:10351000180400201C04002000000020D33200000A
:1035200038B50546FFF7BAFF0B4B002443F825409A
:1035300030B901F089FD092303604FF0FF3038BD39
:1035400003685B699847051E04DA01F07DFD6D4252
:103550000560F2E7204638BDB0000020FFF7E0BF6D
:1035600038B50C461546FFF799FF38B901F06CFDE8
:10357000092303604FF0FF34204638BD036821461D
:10358000DB682A469847041EF6DA01F05DFD6442C6
:103590000460EFE708B5131E06DA01F055FD1623A7
:1035A00003604FF0FF3008BD04D0FFF7D9FF40EAB9
:1035B000E07008BD184608BD38B50C461546FFF743
:1035C0006DFF38B901F040FD092303604FF0FF346F
:1035D000204638BD036821469B682A469847041E4A
:1035E000F6DA01F031FD64420460EFE7002A08B525
:1035F00003DBBDE80840FFF7DFBF01F025FD162320
:1036000003604FF0FF3008BD10B5FFF747FF0446D9
:1036100028B901F019FD09230360204610BD036895
:10362000DB699847041EF8DA01F00EFD644204607D
:103630000024F2E7FFF7E8BF38B50C461546FFF760
:103640002DFF38B901F000FD092303604FF0FF346E
:10365000204638BD036821461B692A469847041E48
:10366000F6DA01F0F1FC64420460EFE7FFF7E4BF33
:1036700038B50D46FFF712FF044630B901F0E4FCFF
:10368000092303604FF0FF3038BD0368DB699847BA
:10369000002814BF4FF400534FF400436B602368BD
:1036A00020469B6A98472861002038BDFFF7E0BF9D
:1036B00000487047FC98000008B500F055F8FCE79A
:1036C00008B505460C46FFF715FA6B1E0246042B9B
:1036D00024D8DFE803F0030D13191E002046FFF77E
:1036E000F1F92246034601210F48FFF77BFDFEE773
:1036F000234602210D48FFF775FDF8E72346032115
:103700000B48FFF76FFDF2E704210A48FFF76AFD57
:10371000EDE705210848FFF765FDE8E7294607487A
:10372000FFF760FDE3E700BF86990000D79900002E
:103730002D9A0000929A0000ED9A00004D9B000027
:1037400008B5FFF7D7F9BDE80840FFF7FFB908B59E
:10375000FFF764FDFFF7ECFAFFF71CFBFFF702FB36
:10376000BDE80840FFF770BD08B5024C23689847D4
:10377000FCE700BFB401002008B5014610B11320DA
:10378000FFF70AF9002008BD10B5044600F0A9F8BB
:10379000EFF305832BB9EFF3108313B9EFF3118324
:1037A0003BB16FF00501002000F08FF86FF00500CD
:1037B00010BD2046DFF804C000DF10BD79370000DF
:1037C00038B50C46034630B140EA010212F0070258
:1037D00001D1172906D818460022214600F069F8C1
:1037E000002038BDA1F10804102519604560251896
:1037F00085602250C260012200F05BF8012038BDD4
:10380000F8B518B111B132F0030304D0002300F071
:1038100051F80020F8BD0F3121F0070100F1080335
:103820001E68D3F804E0F41A2EF00305641BA142CD
:1038300004D934683346002CF2D1E7E744680C44DD
:10384000446042EA0107BEF1000F07D15F6003F157
:103850000804234600F02EF82046F8BD5C195E519E
:1038600067601C600834F4E738B500B121B9002264
:1038700000F021F8002038BDA1F1080500F108038F
:103880000022AB420CD15C6824F003054468641B41
:1038900044605AB95A60012200F00DF8012038BD89
:1038A0001C681A46002CE2D02346EAE71B68136026
:1038B000F1E770477047704770477047704770472F
:1038C0007047704770477047704770477047704740
:1038D0007047704770477047704770477047704730
:1038E0007047704770477047704770477047704720
:1038F0007047704770477047704770477047704710
:1039000070477047704770477047704770477047FF
:103910007047704770477047704770477047036B38
:1039200030B5E3B1CD780024DA78AA420FD31A4635
:103930004A608C608AB19160A4B16160283050E81F
:10394000003F5A1C40E8002101B1F8E730BD5A6839
:103950001C46002AECD01346E6E7C162ECE74B6058
:103960008B60C1620163E9E74B688A6823B19A60A2
:103970008A681AB153607047C262F9E703637047FF
:103980002DE9F74F8B46804600B141B96FF0030136
:103990000020FFF7B6FF002003B0BDE8F08FCF1C7A
:1039A00027F003070C37B0FA80F3B7FA87F10B441E
:1039B0001F2BEBDD07FB00F9F2B19468136801934C
:1039C000166950693CB1A30702D1D368332B05D8DF
:1039D0006FF00801DCE7D368002BF9D13EB116F097
:1039E000030501D1814562D96FF00901D0E70028B4
:1039F000FAD11CB1054619E0019216462E4BD3F8B8
:103A0000A00048B1FEF714F9044660B96FF0040154
:103A1000FFF777FF2046BFE701223421D3F880006B
:103A2000FFF7EEFEF0E7002E3FD10125DFF888A07A
:103A300000224946DAF87C00FFF7E2FE064690B91C
:103A40006FF00401FFF75DFF002DA4D0DAF8A0505D
:103A500021461DB12846FEF719F99CE7DAF88000E7
:103A6000FFF702FF97E74A46002101F048FD45F0C5
:103A700002000823237001236370019B636000230D
:103A8000A070A360A362E36223633A463346C4F89E
:103A900024B0414604F10C00FEF79CF8064B074A9F
:103AA0001A672046FFF72FFFB4E70120E1E7002C5B
:103AB000A4D02846DDE700BF04000020B93B000089
:103AC0002DE9F0410E4690461D46044618B1037894
:103AD000082B00D141B920466FF00301FFF711FF19
:103AE0006FF00300BDE8F08143783BB96FF002014D
:103AF000FFF707FF6FF00200BDE8F081836803B3B2
:103B00005B78832B1DD1FFF703FF2046FEF79BFC5C
:103B1000012205460021FEF705FE2846FEF720FD9E
:103B20000546626A8068314601F0DEFCEB680BB145
:103B300083F80080A9682046FFF7EFFE0020BDE86B
:103B4000F08104F10C00FEF773F80746A8B1626A31
:103B500031460C3001F0C8FC07233B7000250123DF
:103B6000394620467B70BD7087F80380FFF7D7FE8B
:103B700031462046FFF7CCFEE0E7B5B12A46314694
:103B80002046FFF7C2FE0B4B20465969FEF748FC62
:103B900029469320FEF700FFEFF309836FF0010041
:103BA0009E60C3F80C80BDE8F08131462046FFF7E7
:103BB000B0FE9FE704000020F8B543780446002BD0
:103BC0007AD08678002E3ED0C5686B78002B73D0F3
:103BD00001460026284605F10C07FFF7C5FE667072
:103BE00021463846FEF752F8AB68002B64D05B786C
:103BF000932B61D13846FEF71BF8044600285BD0B2
:103C00002846FEF720FC324631460746FEF78AFD7D
:103C10003846FEF7A5FC6A6A8168074604F10C0085
:103C200001F062FC0723237001236370A670FB6818
:103C3000E37021462846FFF772FEB9682846BDE8C2
:103C4000F840FFF765BE85686B78ABB3AB684BB3E4
:103C50005B78832B26D141682846FFF759FE28461A
:103C6000FEF7F1FB324631460746FEF75BFD38466C
:103C7000FEF776FC06466A6A806804F10C0101F0E2
:103C800033FCF3680BB1E2781A70B1682846FFF78D
:103C900044FE00236370214605F10C00BDE8F840A6
:103CA000FDF7F4BF61682846FFF732FE214628463B
:103CB000BDE8F840FFF733BEF8BD10B500F12803AA
:103CC00053E8002F12B9BFF32F8F04E0511E43E8D1
:103CD000001404B1F4E70AB9002010BDC06A012342
:103CE0000028F9D0821CD2E84F1FC2E8443F04B13B
:103CF000F9E711F0FF0F01D08068F1E710BD000077
:103D00002DE9F0410D4617469846044618B1037850
:103D1000082B00D141B920466FF00301FFF7F1FDF8
:103D20006FF00300BDE8F08143783BB96FF002010A
:103D3000FFF7E7FD6FF00200BDE8F081FFF7BDFF80
:103D40000646E8B101462046FFF70EFE626A06F11C
:103D50000C01284601F0C8FB0FB1F3783B702946EF
:103D60002046002504F10C07FFF7D7FD757031469A
:103D70003846FDF78BFFA36803BB0020BDE8F08148
:103D8000B8F1000F15D0424629462046FFF7C3FD83
:103D9000204B20465969FEF743FB41468320FEF73E
:103DA000FBFDEFF309836FF001009D60DF60BDE86C
:103DB000F08129462046FFF7B1FDBBE75B78932BE6
:103DC000DBD13846FDF734FF06460028D5D0204623
:103DD000FEF739FB294607460122FEF7A3FC3846C9
:103DE000FEF7BEFB626A8168074606F10C0001F02F
:103DF0007BFB0723337001237370B570FB68F3708E
:103E000031462046FFF78BFDB9682046FFF780FD5D
:103E1000B3E700BF0400002070B506460D46144607
:103E2000FFF770FDEFF305832BB9EFF3108313B9A0
:103E3000EFF3118333B16FF005010020FFF761FD4F
:103E4000002070BD304629462246DFF828C0EFF337
:103E5000148313F0020F0AD113F0040FEFF3088359
:103E60000CBF203B683B23F0070383F3098800DF86
:103E700070BD00BF813900002DE9F04104460F46B6
:103E800090461D46FFF740FDEFF3058333B9EFF38E
:103E900010831BB9EFF31183002B3CD024B123789E
:103EA000082B01D107B145B120466FF00301FFF7A0
:103EB00028FD6FF00300BDE8F081637843B96FF02F
:103EC00002012046FFF71DFD6FF00200BDE8F08102
:103ED00004F10C00FDF7ACFE0646B8B1626A394643
:103EE0000C3001F001FB072333700123737030465F
:103EF000B57086F803807760B460FEF727F9204636
:103F00003946FFF704FD2846BDE8F08139462046D2
:103F1000FFF7FFFCD8E72046394642462B46DFF83C
:103F200008C000DFBDE8F081C13A0000F8B50446E2
:103F30000D4617461E46FFF7EDFCEFF305832BB940
:103F4000EFF3108313B9EFF31183A3B324B12378F4
:103F5000082B01D105B13EB120466FF00301FFF7F8
:103F6000D0FC6FF00300F8BD63783BB96FF002013D
:103F70002046FFF7C6FC6FF00200F8BD2046FFF7B1
:103F80009CFE064690B100F10C01626A284601F0E1
:103F9000ABFA0FB1F3783B7029462046FFF7BDFC22
:103FA0003046F460FEF7D2F80020F8BD29462046DE
:103FB000FFF7B4FCDFE7204629463A463346DFF8F0
:103FC00008C000DFF8BD00BF013D00002DE9FF4142
:103FD0000F46044634493846164600F005FA334980
:103FE0000546304600F000FA0146284600F0DEF9AA
:103FF0002060013004D137222D492E48FFF778F890
:1040000001A800F0E9FE4FF41653019300232A4A59
:104010008DF80C308DF80D302368284DD05C55F8A4
:10402000238000F063FB01A90246404600F01AFE1F
:104030001D49384600F09EF91C49304600F09AF9B7
:104040007A1C0AD0236855F82320D37843F008035C
:10405000D37002213846FEF72DFE731C0AD0236868
:1040600055F82320D37843F00403D370022130465F
:10407000FEF720FE23683BB9114B124801221A605B
:104080002146BC2201F030FA012384F87830002167
:10409000022321716371302204F10C0001F02FFA28
:1040A00004B0BDE8F08100BF849D0000F49C0000D6
:1040B000EC9B00003B9C0000709C0000589C0000A2
:1040C000800A00200425002038B5084A036852F809
:1040D0002340074AD05C0D4600F008FB2946024603
:1040E0002046BDE8384000F093BE00BF589C000059
:1040F000709C000070B50368084D064655F8230013
:1041000000F0CCFE0307044605D53368082155F8B6
:10411000230000F0CEFE04F0200070BD589C00008B
:1041200010B504462046FFF7E5FF0028FAD02268C4
:10413000024B53F82230D87910BD00BF589C0000C4
:1041400070B50368084D064655F8230000F0A6FE3A
:104150000307044605D53368082155F8230000F00D
:10416000A8FE04F0800070BD589C000038B50546DC
:104170000C462846FFF7E4FF0028FAD02A68034BD4
:1041800053F82230E4B2DC7138BD00BF589C000007
:10419000094B0122C3F83C21C3F82C21D3F8282174
:1041A00022F00102C3F82821D3F8382122F00102BD
:1041B000C3F83821FEF7B2BD007003401F4A1368F0
:1041C00013B5002B38D101211D4C116002A92046E6
:1041D00001F8043D00F0D8FC022000F087FA194BEA
:1041E000B0FBF3F04FF0FF330138C4F80001C4F81E
:1041F0001031D4F81831144A43F00403C4F81831CC
:10420000D4F8083143F00103C4F80831D4F8183168
:1042100043F00103C4F81831C4F82001D4F8383150
:1042200043F00403C4F83831084B9B68C3F80C21F1
:10423000074B4FF400225A6002B010BD840A0020E0
:104240000070034040420F009141000000ED00E08B
:1042500000E100E008B5054B1B680BB9FFF7AEFFA6
:10426000034BD3F81401C04308BD00BF840A0020EB
:1042700000700340034AD2F8383123F00203C2F839
:104280003831704700700340024B0122C3F83C21D3
:10429000704700BF0070034010B50446FFF7DAFF17
:1042A000114BD3F8382122F00102C3F83821D3F89A
:1042B0002821201A22F00102C3F82821C3F8300176
:1042C000D3F8382142F00202C3F83821D3F838215C
:1042D00042F00102C3F83821D3F8282142F001024C
:1042E000C3F8282110BD00BF00700340024B4FF4FB
:1042F0000022C3F80421704700E100E002482A23AD
:10430000037000F077BC00BF00E0074002482A239A
:10431000037000F071BC00BF00E00740EFF31083B2
:10432000DB4372B6044A117829B9044903F001034A
:104330000B70012313707047890A0020880A00203F
:1043400008B5EFF31083DB0704D43622054906488D
:10435000FEF7CEFE054B00221A70054B1B7803B109
:1043600062B608BD769C0000989C0000890A002077
:10437000880A002010B5044601300DD110BD9C42C2
:1043800009D120468968FEF75BFC20460021BDE884
:104390001040FEF78FBC0C310B685A1CEFD102485D
:1043A000BDE81040FEF71EBFE39C0000884208B540
:1043B00008D0431C06D0013106D00448FEF712FF96
:1043C0004FF0FF31084608BD0146FBE7B29C0000F4
:1043D0000B685A1C01D118467047834201D14868C6
:1043E00070470C31F4E70000421C10B5044607D0BA
:1043F000FFF7EEFF431C044602D10248FEF7F2FE2F
:10440000204610BDC39C0000074B9B79DB074BBFC8
:10441000064B074B074A186841BF1878C0F34203A0
:104420001068D840704700BF004006400840064072
:10443000BC010020B801002008B50E4B1B7803F02A
:104440000303012B0ED004D3022B0B4818BF00200E
:1044500008BD0A4B186860B9094B0A4AD4210A48BA
:1044600000F0D4FD094B186818B9094B054AD92149
:10447000F5E708BD0C400640006CDC02C4250020B6
:104480001B9E0000959E0000279E0000C025002076
:104490007D9E000008B5FFF7CFFFD8B10F4A104B43
:1044A0000B321B7812F80B1C1278C3F3C20311F005
:1044B000300F20FA03F002F0030200D00AB1022A02
:1044C00008D1062B03D0072B05D0400908BD1423C3
:1044D000B0FBF3F008BD0C23FAE700BF0140064033
:1044E0000040064008B5084B1B781B0609D5074B52
:1044F000186838B9064B074A074840F2651100F0C2
:1045000085FD002008BD00BF00500640C4250020E6
:104510001B9E0000AC9E0000279E000008B50F4BBC
:104520001B68C3F38143022B09D0032B13D083B93B
:10453000FFF7D8FFB0F5004F18BF002008BD084BAB
:10454000186850B9074B084A084840F2791100F042
:104550005DFD002008BD4FF47A7008BD0070044076
:10456000C02500207D9E0000C39E0000279E000005
:104570000B4B42681A600B4903780A681B0422F44B
:10458000403203F4403313430B60074943780A6811
:104590009B0403F4402322F4402213430B60704732
:1045A00044800440048004400070044008B5104B6F
:1045B0001B78990701D5002008BD0E4B9A79920609
:1045C000F9D49B79DB0610D4FFF764FF0028F2D002
:1045D000084AD378D278C3F341135B0003EBD213BC
:1045E000054A32F81330584308BD044B1868EDE70C
:1045F0000140064000400640229F0000BC01002010
:10460000034B187810F0020001D0FFF7FDBE704791
:104610000040064008B50E4B987910F0400016D0C7
:10462000FFF70AFF30B90B4B0B4A0C4840F27E21D2
:1046300000F0ECFC0A4B1B7803F01F030133B0FBC6
:10464000F3F0084B1B7803F01F031833584308BDE1
:10465000004006408A9E0000D99E0000279E000070
:104660000440064005400640074B1B68C3F3014366
:10467000012B02D003D2FFF799BFFFF7CBBF032B6B
:10468000024818BF0020704704800440006CDC0220
:10469000084B9B79C3F38103022B09D0032B03D072
:1046A000012B03D1FFF7B0BEFFF7B4BFFFF77EBF0A
:1046B000FFF7C2BE0040064010B50A4B9B79DB06EF
:1046C00006D4FFF7E7FE04462CB90024204610BDAF
:1046D000054B1C68F8E7FFF7DBFFB4EBD00FF4D80D
:1046E000F4E700BF00400640BC01002008B51328D5
:1046F00048D8DFE800F00D0D161D24472B2F334757
:1047000047373B3F43474747490A4FF47A7008BD54
:10471000FFF7BEFF1D4B1B681B0F0133B0FBF3F00F
:1047200008BDFFF7B5FF194B1B68C3F30363F4E73C
:10473000FFF7AEFF154B1B68C3F30353EDE7FFF71D
:10474000A7FF124B1B68C3F30343E6E7BDE808402D
:10475000FFF78ABFBDE80840FFF7E0BEBDE80840AC
:10476000FFF7C0BEBDE80840FFF7A6BFBDE80840A0
:10477000FFF746BFBDE80840FFF718BFBDE8084097
:10478000FFF748BF002008BD014808BD4480044031
:10479000006CDC0210B50F490A780B7800F00304B6
:1047A00003F0FC03234302F003020B7038B90A4BF9
:1047B0001B785C0703D50C398B799B07FCD58242AB
:1047C00003D040F2DD53013B01D1002010BD00BFFA
:1047D000F9E700BF0C40064001400640F0B51F4B12
:1047E0001F4EB479B7791D78C5F342059542C4F3DD
:1047F0008104FFB21B4D09D0FF0721D41E7852005F
:1048000002F00E0206F0D00632431A702B7801F047
:10481000010203F0FE0313432B70114B1A7800F0D2
:10482000030502F0FC022A43012C1A7001D0820712
:1048300004D59A7902F001028A42FAD10020F0BD33
:10484000012C02D03678B707D8D52E78044F06F061
:10485000FE062E70BE79F607FCD4CFE7084006406E
:10486000004006400140064010B530B90F4B104AD9
:1048700010484FF4527100F0C9FB43780E4A0F4CB8
:1048800003F01F0313702178837801F0E00103F037
:104890001F030B432370137843F0400103780B434D
:1048A0001370043A93795B06FCD510BD149E00008A
:1048B000EB9E0000279E0000044006400540064095
:1048C000036849F69702934230B527D914498B42C1
:1048D00094BF01210221134A04791378124D03F089
:1048E000F003234313701378847903F05F032343A9
:1048F000137043792C7843EA011303F03C0304F06E
:10490000C3010B432B7043793BB11378190604D5CF
:10491000A2F5805293799B07FCD530BD0021DAE7E0
:1049200000127A00005006400140064010B531B92F
:10493000164B174A174840F2BE5100F067FB164A63
:10494000137803F0FD031370144B1A7802F03B0246
:1049500042F080021A709A7902F01C02082AFAD1F9
:104960000F4C227802F0BF0222700C4A937998060D
:10497000FCD40846FFF778FF2378084A43F0400349
:10498000237093799B06FCD5002010BD149E000077
:10499000FC9E0000279E00000140064000400640AB
:1049A0000540064038B50D46144632B90C4B0D4A49
:1049B0000D4840F25D6100F029FBFFF7EBFE214658
:1049C0002846FFF7B3FF094B1A7802F03F021A702E
:1049D0009A79C2F38102032AFAD1002038BD00BFC0
:1049E000149E00000D9F0000279E0000004006401E
:1049F00070B5054630B9274B274A284840F23A316E
:104A000000F004FB8268017CD177C368046833B985
:104A10002CB141680122A446BDE87040604702EB1A
:104A2000411241F21C0041F218015158125A02F091
:104A30008002002AA1EB030114BF012200224FEAE9
:104A4000511114D0C9B26B7C5BB2994217D1EB7C87
:104A5000287D98421BD1EB7C5BB249B26974E97C3A
:104A6000C91A49B2E974A4B169682846D3E709B103
:104A70000139E7E7297D013901F0FF01E3E76B7CAC
:104A80005BB2CB1AE9D5287D43FA80F3E5E7002332
:104A9000E3E770BD329F0000BC9F0000679F0000ED
:104AA000014B1868FFF7A4BF8C0A0020014B58681F
:104AB000FFF79EBF8C0A0020014B9868FFF798BF54
:104AC0008C0A0020014BD868FFF792BF8C0A0020A7
:104AD000014B1869FFF78CBF8C0A0020014B586905
:104AE000FFF786BF8C0A0020014B9869FFF780BF53
:104AF0008C0A0020014BD869FFF77ABF8C0A00208E
:104B0000014B186AFFF774BF8C0A0020014B586AEA
:104B1000FFF76EBF8C0A0020014B986AFFF768BF51
:104B20008C0A0020014BD86AFFF762BF8C0A002074
:104B3000014B186BFFF75CBF8C0A0020014B586BD0
:104B4000FFF756BF8C0A0020014B986BFFF750BF50
:104B50008C0A0020014BD86BFFF74ABF8C0A00205B
:104B600008B5054B984205D0044B054A0548482135
:104B700000F04CFA002008BD00700340CB9F0000FD
:104B800044A00000F09F000038B504460D4629B946
:104B90000D4B0E4A0E484F2100F038FAFFF7E0FFA8
:104BA0000C4A136843F400031360236823F00203E4
:104BB00023602B7823B1236823F00103236038BDE1
:104BC000236843F00103F9E7149E000054A000009D
:104BD000F09F00003C800440054A136923F0040361
:104BE0001361BFF34F8F30BFBFF36F8F002070474B
:104BF00000ED00E0FFF7F0BF43780C4A03F0F80344
:104C000043F002034370136943F0040313614378D4
:104C1000BFF34F8F30BFBFF36F8F437813F0080F90
:104C200040F63C7008BF0020704700BF00ED00E078
:104C3000084A08B5002352F82310814208D00133F6
:104C4000062BF8D1044B054A0548A92100F0DEF9EE
:104C5000184608BDA4A100005DA0000062A10000EC
:104C60000DA10000F8B504460E4629B9524B534A2F
:104C7000D421534800F0CAF90B681BB9514B4F4A75
:104C8000D521F6E7504988421DD001F58051884270
:104C900019D001F58051884217D001F58051884222
:104CA00013D001F5FA2188420FD001F580518842D6
:104CB00014BF4FF0FF310121B079814207DA434B35
:104CC0003E4AD721D5E70821F6E70121F4E7F0793C
:104CD000814203DA3E4B394AD821CAE71D01B2FBB3
:104CE000F5F5ADB2002D08BF012569015200B2FBF8
:104CF000F3F77F1ABFB23944B2FBF1F2934234BFEB
:104D0000D21A9A1A6421B3FBF1F303EB43039A42DC
:104D10004FD82046FFF78CFF2E4B53F820100B0C7A
:104D200003F1804303F58E2389B2186801228A407B
:104D300002431A60E37803F0F303E370237803F08F
:104D4000E00343EA1523DBB2EDB223706570A37A6A
:104D500007F01F0703F0E0031F43A772A37832791F
:104D600003F0EC0312B143F010031343A370737903
:104D700022785B0102F0DF0203F02003134323706B
:104D8000B379E374F3796375237C43F08803237468
:104D9000637C43F0C0036374E378327ADBB20AB118
:104DA00043F00803727A0AB143F00403E370002071
:104DB000F8BD40F2F530F8BD149E000073A100006C
:104DC0000DA1000077A0000000A006408CA000000C
:104DD000C9A00000BCA1000008B530B9094B0A4ABF
:104DE0000A4840F25D1100F011F94FF4E13303601D
:104DF000012200238371C2710371437103724372F4
:104E000008BD00BF149E00007DA100000DA10000A0
:104E100038B531B91E4B1F4A1F484FF4B77100F027
:104E2000F5F80B01B2FBF3F39BB2002B08BF012393
:104E30005D015200B2FBF1F4641BA4B22544B2FB45
:104E4000F5F2914234BF521A8A1A6425B1FBF5F18A
:104E500001EB41018A4218D2C178C27802F0F30214
:104E6000C270027802F0E00242EA1322D2B2DBB250
:104E700002704370837A04F01F0403F0E003C9B2A8
:104E80001C438472C170002038BD40F2F53038BD3B
:104E90007FA0000093A100000DA1000002794179DC
:104EA000037B807C1B0443EA0123134343EA006035
:104EB000704710B5437903F03F0343EA1123DBB297
:104EC00043710B0E837411F0170F1CBF0379C37964
:104ED0000B070C4605D50379C379437C43F04003A7
:104EE0004374FFF7DBFF044240F2EE3008BF0020BE
:104EF00010BD0000024B034A1B68116802481847A6
:104F0000E40A0020CC0A002000A00640FFF7F2BF10
:104F1000024B034A1B68516802481847E40A002004
:104F2000CC0A002000B00640FFF7F2BF024B034A54
:104F30001B68916802481847E40A0020CC0A002048
:104F400000C00640FFF7F2BF024B034A1B68D1685E
:104F500002481847E40A0020CC0A002000D006408E
:104F6000FFF7F2BF024B034A1B681169024818475A
:104F7000E40A0020CC0A002000A00E40FFF7F2BF98
:104F8000024B034A1B68516902481847E40A002093
:104F9000CC0A002000B00E40FFF7F2BF00F00AB8C4
:104FA00007B504210DEB0100FCF754FB03B05DF8DD
:104FB00004FB000010B50F4B0F4C4FF092721A60BB
:104FC00004F11400FFF77CFC0C4B0D4A1A60002121
:104FD00004F108020846FFF7E5FC00221146022012
:104FE000FFF7FCFB04F10C00FFF7C2FA054B064A81
:104FF0001A6010BD44800440D4A10000C4250020E4
:1050000080F0FA02A8000020000E27071FB51C46FA
:10501000094B1B680546D86852B1084B0091CDE991
:10502000013207492B46224600F096F902F0DAFADF
:10503000044B1A46F2E700BFC0010020F4A10000B3
:1050400001A2000061980000014B1868704700BF82
:10505000C001002008B5074B044613B10021AFF38F
:105060000080054B1868836A03B198472046FEF715
:10507000B3F900BF0000000090A200008A892DE96A
:10508000F041054610070C4658D44B68002B05DC50
:105090000B6C002B02DC0020BDE8F081E66A002EDC
:1050A000F9D0002312F480522F68216A2B6032D08D
:1050B000606DA3895A0705D56368C01A636B0BB18D
:1050C000236CC01A00230246E66A216A2846B047CC
:1050D000431CA38906D129681D2948D8294ACA40FA
:1050E000D60744D500226260D9042269226004D523
:1050F000421C01D12B6803B96065616B2F600029E8
:10510000C9D004F14403994202D0284600F000FAC5
:1051100000206063C0E701232846B047411CC8D186
:105120002B68002BC5D01D2B01D0162B01D12F6071
:10513000B1E7A38943F04003A381ADE70F69002FD6
:10514000A9D093070E6808BF4B690F6018BF0023F2
:10515000A6EB07088B60B8F1000F9CDD43463A468A
:10516000216AA66A2846B047002806DCA38943F0D6
:105170004003A3814FF0FF308EE70744A8EB0008FF
:10518000E9E700BF0100402038B50B6905460C4631
:10519000DBB118B183690BB900F072F80C4B9C427B
:1051A00009D16C68B4F90C307BB121462846BDE8C2
:1051B0003840FFF763BF074B9C4201D1AC68F1E771
:1051C000054B9C4208BFEC68ECE7002038BD00BFEF
:1051D00050A2000070A2000030A20000014620B9D9
:1051E000044B0549186800F0C9B8044B1868FFF76C
:1051F000CBBF00BF90A2000089510000C001002079
:10520000002310B50446C0E9003383608181436602
:10521000C281C0E904338361194608225C3000F082
:105220006EF9054B6362054BA362054BE362054BC8
:105230002462236310BD00BFC1650000E365000068
:105240001B6600003F660000014900F097B800BFF0
:105250008951000070B54A1E682555430E4605F178
:10526000740100F0A3F9044640B10021C0E9001622
:105270000C30A06005F1680200F041F9204670BDD5
:10528000836910B5044633BBC0E912330365124B82
:10529000124A1B688262984204BF0123836100F0B6
:1052A0001FF86060204600F01BF8A060204600F068
:1052B00017F80022E06004216068FFF7A1FF0122D7
:1052C0000921A068FFF79CFF02221221E068FFF786
:1052D00097FF0123A36110BD90A200004952000076
:1052E000F8B51B4B1E68B369074613B93046FFF784
:1052F000C7FF4836D6E90134013B03D5336833B1E3
:105300003668F7E7B4F90C506DB16834F4E704215E
:105310003846FFF79FFF30600028F1D10C233B6037
:1053200004462046F8BD0B4B6566C4E90055A560F0
:10533000C4E90335C4E905550822294604F15C0097
:1053400000F0DDF8C4E90D55C4E91255E9E700BFE6
:1053500090A200000100FFFF0EB403B5014603ABAD
:10536000054853F8042B0068019300F0A3F902B03C
:105370005DF804EB03B07047C00100202DE9F8434D
:105380008046894600F14804002614B93046BDE83D
:10539000F883D4E90175013F01D52468F5E7AB89AD
:1053A000012B07D9B5F90E30013303D02946404609
:1053B000C84706436835EEE770B50D4E0D4CA41B8B
:1053C000A4100025A54209D10B4E0C4C05F0BCF8E9
:1053D000A41BA4100025A54205D170BD56F82530A8
:1053E00098470135EEE756F8253098470135F2E742
:1053F00068A5000068A5000068A5000070A5000071
:1054000070B50E46B1F90E10002996B014461D462F
:1054100007DA00232B60B3891A0610D44FF4806397
:105420000EE06A4602F042FF0028F2DB019A02F425
:105430007042A2F500535A425A412A60EEE74023D7
:105440000020236016B070BD8B8973B59D0706469A
:105450000C4607D504F147032360236101236361F0
:1054600002B070BD01AB6A46FFF7CAFF009905465E
:10547000304600F09BF848B9B4F90C309A05EFD4E7
:1054800023F0030343F00203A381E3E70D4BB36270
:10549000A389206043F08003A381009B6361019B8B
:1054A00020615BB1B4F90E10304603F037FA28B131
:1054B000A38923F0030343F00103A381A3891D43C0
:1054C000A581CDE749520000024B0146186800F063
:1054D0006DB800BFC0010020024B0146186800F003
:1054E00017B800BFC001002010B5431E0A44914206
:1054F00000D110BD11F8014B03F8014FF7E702444A
:105500000346934200D1704703F8011BF9E70000FE
:1055100038B50546002945D051F8043C0C1F002B36
:10552000B8BFE418FDF76CFF1F4A1368104633B983
:10553000636014602846BDE83840FDF765BFA342AC
:105540000CD921686218934204BF1A685B686360D3
:1055500004BF521822600460ECE713465A680AB18F
:10556000A242FAD919685818A0420BD12068014408
:10557000581882421960DDD1106852685A6001449F
:105580001960D7E702D90C232B60D3E720682118D4
:105590008A4204BF11685268626004BF0918216022
:1055A0005C60C7E738BD00BFE80A002070B5CD1CBD
:1055B00025F0030508350C2D38BF0C25002D0646B7
:1055C00001DBA94203D90C233360002070BDFDF735
:1055D00017FF214A1468214691B9204C23681BB952
:1055E000304600F0B9FF20602946304600F0B4FF95
:1055F000431C24D10C2333603046FDF705FFE4E75C
:105600000B685B1B18D40B2B0FD90B60CD50CC183B
:105610003046FDF7F9FE04F10B00231D20F00700D2
:10562000C31AD3D05A42E250D0E78C424B6816BF1F
:10563000636013600C46EBE70C464968CCE7C41C7A
:1056400024F00304A04205D0211A304600F084FF64
:105650000130CFD02560DBE7E80A0020EC0A00200B
:105660009368013B002B10B4936008DA9469A3425D
:1056700001DB0A2903D15DF8044B01F0E1BE136898
:10568000581C1060197008465DF8044B7047F8B557
:1056900006460F461446D518AC4201D1002007E05B
:1056A0003A4614F8011B3046FFF7DAFF431CF3D1EA
:1056B000F8BD00002DE9F04F9DB00C46174603934E
:1056C000064618B183690BB9FFF7DAFD7B4B9C42A4
:1056D00057D17468A38918075DD52369002B5AD068
:1056E0000023099320238DF8293030238DF82A30A8
:1056F0004FF0010BB846454615F8013B0BB1252B81
:1057000054D1B8EB070A0BD053463A4621463046EF
:10571000FFF7BDFF013000F0C280099B534409939D
:1057200098F80030002B00F0BA8000234FF0FF32D1
:10573000CDE90523049307938DF853301A93A846B7
:10574000052218F8011B5E48FBF712F8049B78BB92
:10575000D90644BF20228DF853201A0744BF2B22BC
:105760008DF853202A782A2A2AD0079AA8460020A2
:105770000A25414611F8013B303B092B69D960B33A
:1057800024E0504B9C4201D1B468A3E74E4B9C42AD
:1057900008BFF4689EE72146304601F0B5FE0028B8
:1057A0009ED04FF0FF301DB0BDE8F08FA846A2E7B5
:1057B000434A801A0BFA00F0184304904546BEE7AE
:1057C000039A111D12680391002A01DB079204E07D
:1057D000524243F002030792049398F800302E2BB4
:1057E0000ED198F801302A2B38D1039B1A1D1B6863
:1057F0000392002BB8BF4FF0FF3308F10208059366
:10580000324D98F8001003222846FAF7B1FF40B154
:105810004023401B03FA00F0049B034308F10108F6
:10582000049398F800102A488DF82810062208F1F1
:105830000107FAF79DFF002837D0264B1BBB039BBF
:10584000073323F0070308330393099B4B44099361
:1058500050E705FB0232012088468AE7002308F161
:105860000108059319460A25404610F8012B303AE5
:10587000092A03D9002BC3D00591C1E705FB0121FB
:1058800001238046F0E703AB00932246124B04A9A4
:10589000304600F0B5F8B0F1FF3F8146D5D1A3897D
:1058A0005B063FF57EAF09987DE703AB0093224688
:1058B000094B04A9304600F05FFBECE750A2000062
:1058C00094A2000070A2000030A200009AA2000082
:1058D0009EA20000015A00008F5600002DE9F047FB
:1058E00088B0002B149F109EDDE9121A1D4627F088
:1058F0002007BBBF03F100431D4600232D231446A0
:10590000B8BF1446462F0B7004D0452F00D1013686
:10591000022300E0032307AA049206AACDE902A20B
:10592000CDE9003622462B4601F002FF472F804684
:1059300002D1119BDB0726D5462F08EB060911D1B2
:1059400098F80030302B0AD1002200232046294647
:10595000FBF796FB18B9C6F10106CAF80060DAF841
:10596000003099440022002320462946FBF788FB9B
:1059700038B93022079B4B4505D2591C07911A7044
:10598000F8E7CDF81C90079B159AA3EB0803404657
:10599000136008B0BDE8F087F7B500290446BABF28
:1059A00049422D232B23092904F8022B437020DDC3
:1059B0000DF107031F460A2691FBF6F506FB1511AC
:1059C0003031092D03F8011C03F1FF32294609DCAF
:1059D0003031023B02F8011CBB42224604D3101AAC
:1059E00003B0F0BD1346E7E713F8012B04F8012BD1
:1059F000F2E7302319448370021DC170EFE7000005
:105A00002DE9F04F91B00C46DDF8688016461F4630
:105A1000054602F099FF036808931846FAF7F8FE66
:105A200000230E93D8F800300990073323F00703C2
:105A300003F1080294F818A0D4F800B0C8F80020C8
:105A4000D3E90023C4E91223D4E9128929F00043E1
:105A50000B93CDF828804FF0FF32A94BDDE90A0106
:105A6000FBF740FB70BB4FF0FF32A54BDDE90A01AD
:105A7000FBF71AFB30BB0022002340464946FBF7E8
:105A800009FB10B12D2384F843309E4A9E4BBAF196
:105A9000470F8CBF90469846032323612BF00403E5
:105AA00023604FF00009009733460FAA214628468D
:105AB00000F0ECF9013040F090804FF0FF3011B071
:105AC000BDE8F08F42464B4640464946FBF70AFB8D
:105AD00010B18E4A8E4BDAE76368591C4BF4806232
:105AE0000EA90DA840D1062363600DF13303CDE963
:105AF00001234FF0000C63682260CDE9030A009394
:105B000042464B46CDE9051C2846FFF7E7FE0AF062
:105B1000DF03472B804609D10D9BD81C02DB62684E
:105B2000934247DDAAF1020A5FFA8AFABAF1650FD9
:105B30000D9924D80139524604F150000D91FFF718
:105B40002BFF0E9A1318012A8146236102DC22687A
:105B5000D10701D5013323619DF83330002BA2D04A
:105B60002D2384F843309EE7BAF1670F00F0788167
:105B7000BAF1470FB9D1002BB7D10123B4E7BAF17D
:105B8000660F19D1002963680CDD216113B9226801
:105B9000D20702D501330B4423610D9BA3654FF05F
:105BA0000009D9E713B92268D00701D50233F3E71A
:105BB0000123F1E74FF0670ADDE90D32934205DB7F
:105BC00022682361D107E8D50133E5E7002BD4BF74
:105BD000C3F1020301231344DEE723685A0507D407
:105BE0002369424631462846B84701302BD164E745
:105BF000BAF1650F40F2DD8000220023D4E91201E2
:105C0000FBF73EFA002833D00123424A31462846AA
:105C1000B84701303FF451AFDDE90D239A4202DB72
:105C20002368D8070FD5DDE9082331462846B84751
:105C300001303FF442AF4FF0000804F11A090E9B07
:105C4000013B434509DC23689B0700F10481E068C0
:105C50000F9B9842B8BF184631E701234A463146A8
:105C60002846B84701303FF428AF08F10108E6E7BD
:105C70000D9B002B2BDC0123264A31462846B847D2
:105C800001303FF41AAF0D9B23B90E9B13B9236863
:105C9000D907D8D5DDE9082331462846B847013071
:105CA0003FF40BAF4FF0000904F11A0A0D9B5B4261
:105CB0004B4501DC0E9B94E70123524631462846B2
:105CC000B84701303FF4F9AE09F10109EEE70E9A49
:105CD000A36D9A42A8BF1A46002A914607DD1346D3
:105CE000314642462846B84701303FF4E6AE04F15B
